:020000040800F2
:10000000380B0020890100088D0100088F010008CD
:10001000910100089301000895010008000000000C
:100020000000000000000000000000009701000830
:1000300099010008000000009B0100089D010008D4
:100040009F0100089F0100089F0100089F01000810
:100050009F0100089F0100089F0100089F01000800
:100060009F0100089F0100089F0100089F010008F0
:100070009F0100089F0100089F0100089F010008E0
:100080009F0100089F0100089F0100089F010008D0
:100090009F0100089F0100089F0100089F010008C0
:1000A0009F0100089F0100089F0100089F010008B0
:1000B0009F0100089F0100089F0100089F010008A0
:1000C0009F0100089F0100089F0100089F01000890
:1000D0009F010008A90E00089F0100089F01000869
:1000E0009F0100089F0100089F01000800F002F82E
:1000F00000F03AF80AA090E8000C82448344AAF188
:100100000107DA4501D100F02FF8AFF2090EBAE885
:100110000F0013F0010F18BFFB1A43F0010318473B
:100120000040000020400000103A24BF78C878C189
:10013000FAD8520724BF30C830C144BF04680C60ED
:10014000704700000023002400250026103A28BF35
:1001500078C1FBD8520728BF30C148BF0B60704739
:100160001FB51FBD10B510BD00F02FF81146FFF7E9
:10017000F7FF00F087FF00F04DF803B4FFF7F2FF40
:1001800003BC00F0D3FE000008480047FEE7FEE78E
:10019000FEE7FEE7FEE7FEE7FEE7FEE7FEE7FEE737
:1001A00003480449044A054B70470000ED0000086D
:1001B00038050020380B00203807002038070020C1
:1001C00070477047704770477047754600F02CF8CD
:1001D000AE4605006946534620F00700854618B034
:1001E00020B5FFF7DDFFBDE820404FF000064FF0DF
:1001F00000074FF000084FF0000B21F00701AC465C
:10020000ACE8C009ACE8C009ACE8C009ACE8C0097A
:100210008D46704710B50446AFF300802046BDE818
:100220001040FFF7AABF000000487047D404002028
:100230000C48806940F008000A4988610A48006853
:1002400020F00F00084908600846006840F00300ED
:10025000086005480830006840F4807002490831A1
:100260000860704700100240040C014010B50024E3
:100270001548006820F0F00013490860084600683F
:1002800040F08000086004E0601CC4B2012000F06F
:10029000DBFE0E48006808B1642CF5DB642C01DB42
:1002A000012010BD002404E0601CC4B2012000F055
:1002B000CBFE0648006808B9642CF5DB642C01DB32
:1002C0000120EEE70020ECE7040C014024812142EC
:1002D00010B50F48806940F008000D4988610D484D
:1002E000006820F0F0000B4908600846006840F004
:1002F0003000086007480830006840F40070054985
:100300000831086000F06AF8FFF7B0FF10BD000088
:1003100000100240040C014010B5002404E0601CF1
:10032000C4B2012000F090FE0D48006808B1642CB2
:10033000F5DB002404E0601CC4B2012000F084FE60
:100340000748006808B9642CF5DB282000F07CFE23
:100350000348006808B1012010BD0020FCE7000040
:100360002481214270B50024002506E06006040EB9
:10037000FFF7D2FF0443681CC5B2082DF6DB204608
:1003800070BD7CB505460E4600F028F8FFF76EFFFD
:10039000F8B9002405E0FFF7E5FF0DF80400601C44
:1003A000C4B2052CF7DB9DF800009DF8011008444D
:1003B0009DF8021008449DF8031008449DF80410AD
:1003C000884208D19DF8000030709DF80200287026
:1003D00001E001207CBD0020FCE7000010B50C48C6
:1003E000006820F0F0000A4908600846006840F004
:1003F00030000860002007490860142000F006FE65
:1004000001200549C1F8A4011E2000F01DFE10BD09
:10041000040C0140A48121420080214221488069CE
:1004200040F004001F4988610846806940F01000D0
:1004300088610846806940F0200088611A48006899
:1004400020F00F00184908600846006840F00800D6
:1004500008601648406820F0FF00144948600846CC
:10046000406840F0880048600846C06840F48070EA
:10047000C8600846C06840F40070C8600C48006856
:1004800020F470600A4908600846006840F4006083
:10049000086007480C30006840F0040004490C3143
:1004A0000860704700100240000801400010014041
:1004B0000014014010B5044614B101202149087010
:1004C0002048007848B32048006850B11E48001DFD
:1004D000006830B11D48006818B11D480068012847
:1004E0001BD10A2000F092FD002016490870164822
:1004F000006808B9012010BD1348001D006808B944
:100500000220F8E71148006808B90320F3E7104813
:100510000068012814D10420EDE70B480068012889
:100520000ED10948001D0068012809D1074800685C
:10053000012805D10648006810B90120014908705A
:100540000020D8E70A000020200122420881224230
:10055000000121420A48806940F010000849886182
:10056000084800680020074908600846006840F015
:10057000333008600846C06840F0FF00C86070472C
:10058000001002400010014000B50020154908612C
:10059000C8601420486100208861C861084600686E
:1005A00040F001000860084640680F4908400D49C6
:1005B0004860084600680D4908400A490860084636
:1005C000006820F4802008600846406820F4FE009F
:1005D00048600020886000214FF0006000F058F86B
:1005E00000BD0000001002400000FFF8FFFFF6FE13
:1005F0002DE9F0410746884614461D46284600F07E
:1006000033F8C5F1040007FA00F60F20284100EA8C
:100610000800064306F00F06E21704EBD2625211FF
:10062000920002F1E022D2F800212146E31704EB08
:10063000D3635B11A4EB431C012303FA0CF31A43AD
:100640002046E31704EBD3635B119B0003F1E02327
:10065000C3F800210348005D40EA0610014908552F
:10066000BDE8F08100E400E00146072323EA01022F
:100670001202054B18684FF6FF031840034B18434E
:100680001043014B186070470CED00E00000FA05C4
:10069000024A0A400243024B1A60704780FFFF1F64
:1006A00008ED00E010B500229B4B10469B4900F07E
:1006B0003FFC642000F0AAFC0022974B10469749AB
:1006C00000F036FC642000F0A1FC0022924B1046A2
:1006D000934900F02DFC642000F098FC00228E4B22
:1006E00010468F4900F024FC642000F08FFC0022AB
:1006F000894B10468B4900F01BFC642000F086FCFF
:100700000022854B1046874900F012FC642000F05F
:100710007DFC0022804B1046814900F009FCC82076
:1007200000F074FC00227C4B10467F4900F000FC76
:10073000642000F06BFC0022774B10467A4900F0F1
:10074000F7FB642000F062FC0022734B10467749EF
:1007500000F0EEFB642000F059FC00226E4B1046C6
:10076000724900F0E5FB642000F050FC00226A4B67
:1007700010466F4900F0DCFB642000F047FC0022CB
:10078000654B10466A4900F0D3FB642000F03EFC44
:100790000022614B1046614900F0CAFBC82000F0FE
:1007A00035FC00225C4B10465D4900F0C1FB642023
:1007B00000F02CFC0022584B1046594900F0B8FBC1
:1007C000642000F023FC0022534B1046564900F0F1
:1007D000AFFB642000F01AFC00224F4B1046524938
:1007E00000F0A6FB642000F011FC00224A4B1046EA
:1007F0004E4900F09DFB642000F008FC0022464BAF
:1008000010464A4900F094FB642000F0FFFB0022F0
:10081000414B1046464900F08BFBC82000F0F6FB28
:1008200000223D4B10463E4900F082FB642000F060
:10083000EDFB0022384B1046394900F079FB64206B
:1008400000F0E4FB0022344B1046374900F070FB07
:10085000642000F0DBFB00222F4B1046324900F0F1
:1008600067FB642000F0D2FB00222B4B10462F497F
:1008700000F05EFB642000F0C9FB0022264B10460E
:100880002A4900F055FB642000F0C0FB0022224BF7
:100890001046274900F04CFBC82000F0B7FB0022AF
:1008A0001D4B10461D4900F043FB642000F0AEFBD9
:1008B0000022194B1046194900F03AFB642000F061
:1008C000A5FB0022144B1046154900F031FB6420B3
:1008D00000F09CFB0022104B1046114900F028FB51
:1008E000642000F093FB00220B4B10460D4900F0F2
:1008F0001FFB642000F08AFB0022074B10460949C9
:1009000000F016FB642000F081FB0022024B104631
:10091000034900F00DFB10BD0000E03F005890407F
:100920000080984000809B4000D4954000989440FF
:10093000005C924030B500240CE0002506E0002069
:10094000074901EBC5010855681CC5B2802DF6DBCF
:10095000601CC4B2082CF0DB00F016F930BD0000BA
:10096000D4000020F0B5144600267F2801DC3F2982
:1009700000DDF0BD0B46CF1701EB5777FF10C7F135
:100980000707FAB2CF1701EB5777FF10A1EBC707A4
:10099000FDB2C5F107070123BB40DEB24CB10A4BE3
:1009A00003EBC0039B5C3343074F07EBC007BB540B
:1009B00008E0054B03EBC0039B5CB343024F07EB1E
:1009C000C007BB5400BFD4E7D400002010B568486E
:1009D000806940F00400664988610846806940F0FB
:1009E000080088610846806940F01000886161480D
:1009F000006820F47F405F4908600846006840F4C2
:100A00004C500860081F006820F47060091F0860DF
:100A10000846006840F44070086056480830006896
:100A200040F6044108435349083108604FF0333021
:100A30005149086050480C3000684FF6FF71084378
:100A40004D490C3108604B48006820F0F0004949DE
:100A500008600846006840F03000086045480830EB
:100A6000006840F40070434908310860434840681A
:100A700020F47000414948600846406840F4401046
:100A800048600846C06840F40050C86000203C49F7
:100A90000860642000F0BAFA01203A49C1F8A801C0
:100AA0000021AE2000F096F90021D52000F092F947
:100AB0000021502000F08EF90021A82000F08AF9D2
:100AC00000213F2000F086F90021D32000F082F9B8
:100AD0000021084600F07EF90021402000F07AF95C
:100AE00000218D2000F076F90021142000F072F929
:100AF0000021202000F06EF90021022000F06AF9A8
:100B00000021A12000F066F90021C02000F062F968
:100B10000021DA2000F05EF90021122000F05AF9DD
:100B20000021812000F056F90021EF2000F052F959
:100B30000021D92000F04EF90021F12000F04AF9FF
:100B40000021DB2000F046F90021302000F042F9BE
:100B50000021A42000F03EF90021A62000F03AF97F
:100B60000021AF2000F036F9FFF7E4FE10BD0000D1
:100B700000100240040C0140000801400010014038
:100B8000A88121420080214230B500241CE004F1FC
:100B9000B001C8B2002100F01DF90021084600F0A4
:100BA00019F90021102000F015F9002508E0084986
:100BB00001EBC501085D012100F00CF9681CC5B20C
:100BC000802DF4DB601CC4B2082CE0DB30BD0000DB
:100BD000D40000202DE9F84F80460F4616461C46EB
:100BE000BA462046E31704EB5373DB1021464FEA65
:100BF000E47C04EB5C7C4FEAEC0CA4EBCC0CBCF189
:100C0000000F02D04FF0010C01E04FF0000C6344E4
:100C1000224604EBD27C4FEA6C0C03FB0CF303F08E
:100C2000FF0BA6F12000C6B200254EE00C2C07D128
:100C300006EB4600274901EB8000405D009013E081
:100C4000102C05D1244800EB0610405D00900BE00D
:100C5000182C07D106EBC600204901EB8000405D4F
:100C6000009001E0BDE8F88F4FF0000927E0009800
:100C700000F0800028B1394640460A9AFFF772FE1C
:100C800009E00A9808B9012000E000200246394630
:100C90004046FFF767FE00984006000E0090781C63
:100CA000C7B2A7EB0A00A04205D1574608F10100E0
:100CB00000F0FF0806E009F1010000F0FF09B9F1BA
:100CC000080FD4DB00BF681CC5B25D45AEDB00BFBA
:100CD000C8E700005E290008D22D0008C2330008D2
:100CE0002DE9FF4F81B0074691461E460E9D4FF0FD
:100CF000000A002439E0301B401EC1B20A2000F077
:100D0000C5FDB9FBF0F00A21B0FBF1F201FB1208BE
:100D1000BAF1000F16D1701EA04213DDB8F1000F1A
:100D20000ED10120AB4605EBDB71491001FB0471CC
:100D30000090C8B22B4620220299FFF74BFF12E029
:100D40004FF0010A0120AB4605EBDB71491001FBB6
:100D500004710090C8B208F13001CAB22B46029962
:100D6000FFF738FF00BF601CC4B2B442C3DB05B05C
:100D7000BDE8F08FF8B506460F4615461C4621E043
:100D800004EBD4714910C1F18001B14202DA0026AE
:100D90003819C7B2C4F14000B84204DA0020064650
:100DA0000746FFF7C7FD012000902A782346394601
:100DB0003046FFF70FFF204604EBD07106EB6101D0
:100DC000CEB26D1C28787E2802DC28782028D7DA5D
:100DD000F8BD00000C4A126802F47F42C3B21A4305
:100DE000094B1A60094A11600022094BC3F8882197
:100DF000084B1A6001221A60044B243B1A60044B12
:100E0000C3F8AC21704700000C080140AC812142BE
:100E100000802142B401224230B504460025FFF78C
:100E2000B3FB1F48006840F480301D49086000BFD4
:100E30001B480068400C0028FAD04FF48060184925
:100E40004860A01EC4B20846406840EA844048603A
:100E50000846406840F4803048601248006840F01E
:100E60003200104908600E48006840F080700C495C
:100E7000086000BF0A480068400E0028FAD0084801
:100E8000406840F002000649486005E004484068B8
:100E9000C0F3870505F00305022DF7D130BD000032
:100EA00000100240002002401D49098801F0200185
:100EB00011B31B49091D0988C8B21A49098801F4F0
:100EC0000041C9B91749098801F4804161B10A2874
:100ED00003D00021134A118020E01249098841F40F
:100EE0000041104A118019E00D2806D10D490988EA
:100EF00041F480410B4A118010E00A490988C1F38E
:100F00000D01094A505407490988491C054A1180B6
:100F100011460988C72901DD0021118070470000B2
:100F200000380140080000200C00002000BF70477E
:100F30002DE9F04F85B004460D4616461F46224661
:100F40002B4600201E4900F0BBFE824600221D4BAE
:100F500001F07AF8CDE9000101F00AF80490224688
:100F60002B460020164900F0ABFECDE9020100201F
:100F70008046814612E01448006808B9012000E06C
:100F8000002011490860049800F05EF800220C4B24
:100F90004046494600F0E0FD8046894642464B46C1
:100FA000DDE9020101F050F8824632463B4601F08D
:100FB0000FF8E0D901200449086005B0BDE8F08FC2
:100FC0000000F03F80842E41A08121424FF0E021BB
:100FD000096921F004014FF0E0221161C21700EB12
:100FE0005272C2F3C702074B1A701946097801EB17
:100FF0004102C2EBC1114FF6FF7202EAC101024A7F
:1010000011807047000000200200002001460D4AB8
:1010100012884A434FF0E0235A6100229A6101226C
:101020001A6100BF4FF0E022106900F001021AB10E
:1010300000F48032002AF5D000224FF0E0231A613C
:101040009A6170470200002001460D4A12784A4317
:101050004FF0E0235A6100229A6101221A6100BF19
:101060004FF0E022106900F001021AB100F4803262
:10107000002AF5D000224FF0E0231A619A617047F0
:101080000000002086B000200590824681460024A2
:101090000026002700BF83464FF01E080920FFF7F7
:1010A000BBFE4820FFF792FF4FF4E131482000F0EB
:1010B000E1FCFFF74FFAFFF789FCFFF7AFF9FFF705
:1010C000B7F8FFF705F900F047FCCBE3E4E00020B8
:1010D000FFF7F0F905909DF81400022804D00328CA
:1010E0000AD004282BD122E0B9F1030F03D009F173
:1010F000010000F0FF09CEE0FFF71CFC09F1010040
:1011000000F0FF0ABAF1010F06D0BAF1020F06D0C3
:10111000BAF1030F09D105E000F0F2FB05E000F0A1
:10112000C1FB02E000F064FC00BF00BFB3E0B9F116
:10113000000F03D0A9F1010000F0FF09ABE0322F4E
:101140007BD1B9F1000F09D0B9F1010F2BD0B9F162
:10115000020F4DD0B9F1030F24D16FE03EB90C233B
:10116000F9A210210020FFF705FE012606E00C235E
:10117000F6A210210020FFF7FDFD00260C23F3A2AC
:101180001C210020FFF7F6FD0C23F0A228210020EF
:10119000FFF7F0FD0C23EDA234210020FFF7EAFD5C
:1011A000FFF7F2FC6FE03EB90C23E7A21C21002000
:1011B000FFF7E0FD012606E00C23E4A21C2100203D
:1011C000FFF7D8FD00260C23E0A210210020FFF736
:1011D000D1FD0C23DDA228210020FFF7CBFD0C233D
:1011E000DAA234210020FFF7C5FDFFF7CDFC4AE06D
:1011F0003EB90C23D4A228210020FFF7BBFD012615
:1012000006E00C23D1A228210020FFF7B3FD002621
:101210000C23CEA210210020FFF7ACFD0C23CBA2A3
:101220001C210020FFF7A6FD0C23C8A234210020BA
:10123000FFF7A0FDFFF7A8FC25E026E03EB90C2350
:10124000C1A234210020FFF795FD012606E00C2302
:10125000BEA234210020FFF78DFD00260C23BBA287
:1012600010210020FFF786FD0C23B8A228210020C2
:10127000FFF780FD0C23B5A21C210020FFF77AFDAB
:10128000FFF782FC00BF00BF0027781CC7B20A200E
:10129000FFF7BCFE00BF00BFBAF1000F3FF417AF6D
:1012A00001E10020FFF706F905909DF814000128E0
:1012B00006D002280CD003280FD0042872D1ADE04C
:1012C0004FF0000A0024FFF735FB00F045FBE9E092
:1012D000012C01D0601CC4B2E4E00CBB00250AE084
:1012E00000209B4A02EB8501C1F88001C820FFF76E
:1012F0008DFE681CC5B2082DF2DBC820FFF786FE04
:1013000000250AE00120924A02EB8501C1F8800124
:10131000C820FFF77BFE681CC5B2082DF2DB00BFBA
:10132000012C7AD1002517E0281DC0B20290C5F12A
:101330000300C0B201900021854A019802EB8000B1
:10134000C0F88011029802EB8000C0F88011C8201C
:10135000FFF75CFE681CC5B2042DE5D1C820FFF77D
:1013600055FE002517E0281DC0B20290C5F103000C
:10137000C0B201900121764A019802EB8000C0F8CA
:101380008011029802EB8000C0F88011C820FFF79E
:101390003DFE681CC5B2042DE5D1C820FFF736FE1E
:1013A000002518E03EE0281DC0B20290C5F1030000
:1013B000C0B201900021664A019802EB8000C0F89B
:1013C0008011029802EB8000C0F88011C820FFF75E
:1013D0001DFE681CC5B2042DE5D1C820FFF716FE1E
:1013E000002517E0281DC0B20290C5F10300C0B26D
:1013F00001900121564A019802EB8000C0F880114B
:10140000029802EB8000C0F88011C820FFF7FEFDB3
:10141000681CC5B2042DE5D100BF43E00CB1601ECD
:10142000C4B23FE0322F37D114B1012C32D118E0D1
:101430003EB90C2344A210210020FFF79BFC01269B
:1014400006E00C2341A210210020FFF793FC0026A8
:101450000C233EA21C210020FFF78CFCFFF794FB1D
:1014600018E03EB90C2338A21C210020FFF782FCB3
:10147000012606E00C2335A21C210020FFF77AFC90
:1014800000260C2331A210210020FFF773FCFFF788
:101490007BFB00BF00BF0027781CC7B20A20FFF704
:1014A000B5FD00BF00BFBAF1010F3FF4FAAE6CE02A
:1014B0000020FEF7FFFF05909DF81400012806D0DC
:1014C00002280CD003280FD0042815D110E04FF0CB
:1014D000000A0024FFF72EFA00F03EFA54E0012C37
:1014E00001D0601CC4B24FE00CB9FFF7DBF84BE051
:1014F0000CB1601EC4B247E0322F3FD114B1012CB1
:101500003AD118E03EB90C230FA210210020FFF7BA
:1015100031FC012606E00C230CA210210020FFF76D
:1015200029FC00260C2309A21C210020FFF722FC25
:10153000FFF72AFB20E06EB90C2303A21C21002038
:10154000FFF718FC01260DE03E000000200000001F
:10155000000022420C23AFF20C021C210020FFF7F6
:1015600009FC00260C23AFF21C0210210020FFF71B
:1015700001FCFFF709FB00BF00BF0027781CC7B2C2
:101580000A20FFF743FD00BF00BFBAF1020F8FD062
:1015900064E10020FEF78EFF05909DF814000128FD
:1015A00006D0022811D0032814D004284FD14AE0D5
:1015B0004FF0000A00240120AB4908604FF01E08DC
:1015C000FFF7B8F900F0C8F947E1032C01D0601C1F
:1015D000C4B242E1022C21D1B8F1000F1ED0A8F113
:1015E00001080A20B8FBF0F048B10C200223424663
:1015F00034210090FFF774FBFFF7C6FA0EE00C23CE
:101600009AA234211846FFF7B5FB0C20022342466C
:1016100034210090FFF764FBFFF7B6FA032C11D1D9
:10162000B8F1630F0ED008F101080A20B8FBF0F002
:1016300040B10C200223424634210090FFF750FBBA
:10164000FFF7A2FA09E10CB1601EC4B205E1322F26
:101650007DD10BF1010000F0FF0BBBF1040F52D163
:1016600003A904A8FEF78DFE98BB0C2382A21021CB
:101670005A20FFF77FFB0C237FA21C215A20FFF783
:1016800079FB0C20022300909DF8102010215A2095
:10169000FFF726FB0C20022300909DF80C201C2154
:1016A0005A20FFF71DFB9DF81000804529D86E4990
:1016B000096809B9012100E000216B4A116000208E
:1016C00010E06F4A02EB8001D1F8801111B90121BD
:1016D00001E00AE000216A4B03EB8002C2F88011AE
:1016E000411CC8B20828ECDB0BE00C2365A21021DA
:1016F0005A20FFF73FFB0C2362A21C215A20FFF760
:1017000039FB4FF0000B34B1012C2CD0022C50D0FF
:10171000032C27D173E046B90C23AFF2D412102169
:101720000020FFF727FB012606E00C2353A210211F
:101730000020FFF71FFB00260C2350A21C210020D5
:10174000FFF718FB0C234DA22821002000E07EE0CB
:10175000FFF710FB0C2349A234210020FFF70AFBFE
:10176000FFF712FA71E046B90C23AFF224221C21D4
:101770000020FFF7FFFA012606E00C233FA21C2100
:101780000020FFF7F7FA00260C233CA210210020CE
:10179000FFF7F0FA0C2339A228210020FFF7EAFA1C
:1017A0000C2336A234210020FFF7E4FAFFF7ECF90E
:1017B0004BE046B90C23AFF2702228210020FFF73E
:1017C000D9FA012606E00C232CA228210020FFF7DD
:1017D000D1FA00260C2329A210210020FFF7CAFA13
:1017E0000C2326A21C210020FFF7C4FA0C2323A2FD
:1017F00034210020FFF7BEFAFFF7C6F925E046B90D
:101800000C23AFF2BC2234210020FFF7B3FA0126EB
:1018100006E00C2319A234210020FFF7ABFA0026C2
:101820000C2316A210210020FFF7A4FA0C2313A208
:1018300028210020FFF79EFA0C2310A21C21002073
:10184000FFF798FAFFF7A0F900BF00BF0027781C48
:10185000C7B20A20FFF7DAFB00BF00BFBAF1030FDF
:101860003FF497AE32E40000A081214220202020E6
:101870002020202000000000202020202000000048
:10188000000022424552524F5200000010B502465D
:10189000012000E050430B1EA1F10104E1B2F9D197
:1018A00010BD000010B5102309A200210846FFF763
:1018B00061FA0C2309A210211846FFF75BFA0C23EA
:1018C0000AA21C211846FFF755FAFFF75DF910BD73
:1018D0004D6164652062792047756F00312E205874
:1018E00069616F58696E6758696E6700322E204CC7
:1018F00069616E675A68694C616F48750000000045
:1019000010B5102309A200210846FFF733FA0C2373
:1019100009A210211846FFF72DFA0C230AA21C2158
:101920001846FFF727FAFFF72FF910BD4D616465E0
:101930002062792047756F00312E204C4544205499
:1019400057494E4B4C450000322E205741564520FA
:101950004C49474854454E0010B5FFF737F810235F
:101960000FA200210846FFF705FA0C230FA2102151
:101970001846FFF7FFF90C2310A21C211846FFF7A9
:10198000F9F90C2311A228211846FFF7F3F90C23CB
:1019900013A234211846FFF7EDF9FFF7F5F810BD53
:1019A0004D6164652062792047756F00312E204CAF
:1019B0004544205457494E4B4C450000322E20429E
:1019C000454550204D55534943000000332E2054C7
:1019D000454D50455220444953504C415900000058
:1019E000342E2043414C43554C41544F520000008B
:1019F00010B510230FA200210846FFF7BBF90C23F6
:101A00000FA210211846FFF7B5F90C2310A21C21D4
:101A10001846FFF7AFF90C2310A228211846FFF74C
:101A2000A9F90C2312A234211846FFF7A3F9FFF7F6
:101A3000ABF810BD4D6164652062792047756F0079
:101A400054656D70657261747572653A20000000AE
:101A500048756D69646974793A2000005365742093
:101A6000416C61726D2054656D7065723A200000A2
:101A7000333000002DE9F05F05460E46300100F0DE
:101A80000FFE8146304905FB01F000F009FE824659
:101A9000494600F023FD0746384600F0E1FD84B2D8
:101AA000204600F0FDFD8346394600F0D9FE82460F
:101AB0004FF0834100F008FE814600F0D1FD8046E2
:101AC0004FF6FF7000EA041404EB080084B21F48CC
:101AD000806940F004001D4988610846806940F42F
:101AE000804088611A48006820F47F6018490860C7
:101AF0000846006840F40B6008601448C06840F471
:101B000080401249C8600846C06820F48040C86020
:101B100010480480001D008842F20C0108430D4962
:101B2000091D08800846008840F480700880084637
:101B3000008840F020000880022325220321084667
:101B4000FEF756FDBDE8F09F40420F000010024036
:101B5000040801400838014010B591EA030F48BF5E
:101B600083F0004300F17683841A71EB030C05D2F5
:101B7000121943EB0C03001B61EB0C01DFF824E1AD
:101B80004FEA1154A4EB135C1EEA430F18BF9EEA00
:101B9000445F73D023EA0E03DCF1200E21EA0451E6
:101BA00043F4801332D322FA0CFE10EB0E0023FA1A
:101BB0000CFE41EB0E01CCF1200E03FA0EFE10EBF1
:101BC0000E0051F10001B1F5801FCCF1200E32D290
:101BD00001EB045112FA0EF2BDE8104058BF7047F5
:101BE000401C38BF5FEA420218BF7047002814BF8C
:101BF00020F0010041F100014FEA410313F5001FFD
:101C000038BF7047A1F1C04100F016BB012A43EB79
:101C10000302ACF1200CDCF11F0E32BF4FF0000EBE
:101C200023FA0CF310EB030041EB0451B4EB115F0A
:101C3000D0D0A1EB045101F5801149085FEA3000D2
:101C400001EB04510ED350F1000038BF12FA0EFE22
:101C500008D1BDE81040C9E7401C38BF5FEA420226
:101C6000CAD1C3E7BDE810404FEA410313F5001F96
:101C700038BF7047A1F1C04100F0DEBA9EEA445F70
:101C800008D011EA5E0FBDE8104004BF01F000412A
:101C900000207047BDE8104070B500F07FFA00BF2B
:101CA00064FBBE3E0000E0FF491058BFC1F1404157
:101CB0005B1058BFC3F140438B42EFF30080704785
:101CC0002DE9C04130B4DFF8A0C23CEA111418BFBE
:101CD0003CEA131400F0EC8081EA03051CEA1114BD
:101CE00044EAD57418BF1CEA131500F0C780A4EBB2
:101CF00005044FF0004545EAC12145EAC32341EA06
:101D0000505143EA525304F17F74994204F5003470
:101D10004FEAC0204FEAC22208BF904200F09C80E8
:101D20004FEA13650FF24016765D4FEA134506FB46
:101D300005F7C7F1807706FB07F74FEAD737A7FB10
:101D400003687642C8F58038A7FB06CE38BFA8F1F5
:101D5000010807FB08E64FF0000EA6FB028CE6FB2D
:101D600003CEDCF1000CCEF1004E38BFAEF1010E17
:101D7000A6FB0C584FF000074FF00005E6FB0E875E
:101D8000A1FB08C6A0FB07CE16EB0E0645F1000529
:101D9000E1FB076515F1E04E7EBFA4F580345FEAF4
:101DA00046066D4116F1800745F100054FEA1727F9
:101DB0004FEA066647EA0567A6F1DE46B6F1805FA0
:101DC0004FEA15251FD9384624F0010C05EBC471E4
:101DD000BCF1FE6F01EB0C1102D8F0BCBDE8008134
:101DE00024425CBF01F5801E9EEAC47F02D4F0BC91
:101DF000BDE80081244238D4F0BCA1F1C041BDE867
:101E0000004100F019BA4FEAD22242EA43524FEAA7
:101E1000D323A7FB02864FEAD02040EA415007FBBC
:101E200003661EEA0E0F4FEAD12105FB026658BF7A
:101E3000A6EB0056B6EB00564FEA520E4EEAC37EB2
:101E400018EB0E0E56EB530EBDD518EB02085E4193
:101E50007F1C55F10005B6E74FF480154FF00007E1
:101E60004FF000064FF00008ADE7F0BC4FF0000067
:101E700001F1C04101F00041BDE8008111EA0C1FF1
:101E80000CEA131500D00CE013EA0C1F00F02580BB
:101E90004FF00000F0BC81EA030101F00041BDE811
:101EA0000081F0BCBDE8004181EA030100F0C4B943
:101EB000F0BCBDE8004170B500F070F9097EFC3E51
:101EC00000F007B881EA03014FF0000001F0004183
:101ED000704781EA030100F0AFB9F0BCBDE80041F2
:101EE0004FF0000021497047FFFDFBF9F7F5F4F2D0
:101EF000F0EEEDEBE9E8E6E4E3E1E0DEDDDBDAD8A5
:101F0000D7D5D4D3D1D0CFCDCCCBCAC8C7C6C5C402
:101F1000C2C1C0BFBEBDBCBBBAB9B8B7B6B5B4B319
:101F2000B2B1B0AFAEADACABAAA9A8A8A7A6A5A404
:101F3000A3A3A2A1A09F9F9E9D9C9C9B9A999998C8
:101F40009797969595949393929191908F8F8E8E6B
:101F50008D8C8C8B8B8A89898888878786858584F8
:101F600084838382828181800000FF070000F87FE4
:101F70004FEA41034FEA5353A3F58063D3F11E03A5
:101F8000C8BFD3F1210C0CDD4FF0004242EAC12260
:101F900042EA505232FA03FC8CEAE17CACEBE1708D
:101FA0007047102BC4BF0020704703F5787CBCF14C
:101FB000FF3F04D06FF0004282EA2100704770B505
:101FC00000F0ECF84992248000207047F2E700000E
:101FD00051EA030C17D41CF5801F58BFBCF5801FB5
:101FE00000F10680994218BF704708BF90427047C1
:101FF00007D711F5801F58BF13F5801F19D49942D8
:102000007047894270471CF5801F08D5BCF5801FBA
:10201000F7D58B4218BF704708BF824270474FF414
:10202000001C1CEB410F38BF1CEB430F01D28B424D
:10203000704770B500F0B2F8922449004FF000519B
:102040004FF08053FFF730BEDFF848C170B51CEA8F
:10205000111E1EBF1CEA13159EEA0C0F95EA0C0F09
:1020600000F06F8081EA030423EA4C134EEAD47E29
:1020700021EA4C1141F4801143F48013AE44A1FBDA
:10208000024CA0FB0365AEF17F7E361955EB0C05C3
:10209000A1FB034C4CF10003A0FB021C16EB0C0649
:1020A000654153F10003094218BF46F0010613F4DD
:1020B000007F0BD14FEA03314FEA0530340341EA88
:1020C000155140EA16506FF003020AE04FEAC321AF
:1020D0004FEAC520F40241EA555140EA56506FF0EC
:1020E000020202EB2E4201EB025585EACE710AD0C4
:1020F0005FEA440C18BF24F0004450F1000041F1A5
:10210000000120EAD47040F2FE7C624500D270BD2E
:10211000A84214BF4FF080444FF04044002E08BF47
:102120000024BEF1806FA8BFA1F1C041BDE870409E
:1021300080F282804FF0000001F1C04101F00041C7
:1021400070479EEA0C0F0CEA131518BF95EA0C0FA6
:1021500006D04FF0000081EA030E0EF0004170BD82
:1021600000F01CF88900013E00F007B800F009B843
:102170004FEA430C5FEA5C5C08D081EA030100F09F
:102180005BB84FEA410C5FEA5C5CF6D14FF00000AF
:10219000014970470000FF070000F87F0EF1020EB2
:1021A0002EF0030E5EF8046B364205D4012A43EB91
:1021B000030515F5001F12D8012841EB010C1CF591
:1021C000001F0CD80ED14FEAD17C15F5001F0CEB87
:1021D0004C0C0CF1020C08BF4CEBD37C04E04FF02C
:1021E000080C01E04FEAD37C0CEB4C0526FA05F60F
:1021F00006F00706B6F1040C06D20EEB860CBDE81D
:1022000070404CF0010C6047DFE80CF0090B020253
:102210004FF000414FF00000A1F5002170BD1946BC
:102220001046012851EB010418BFD4F5001484BFF7
:10223000002001F0004170BD0808A0F500114FEA30
:102240003101704710B591EA030F48BF83F0004396
:102250003FF58AAC841A71EB030C07D212198CF08B
:10226000004C43EB0C03001B61EB0C01DFF8A4E115
:102270004FEA1154A4EB135C1EEA430F18BF9EEA09
:10228000445F00F0B08023EA6E03524221EA045119
:10229000C3EB6E0338BF5B1EDCF1200E25D322FAA0
:1022A0000CFE10EB0E0043FA0CFE41EB0E01CCF1DC
:1022B000200E03FA0EFE10EB0E0051F10001CCF1DE
:1022C000200E29D412FA0EF201EB0451BDE81040A1
:1022D00058BF7047401C1CBFB2F1004F7047002828
:1022E0000CBF491C20F00100704712EB020E43EBBB
:1022F000030218BF4FF0010E4EEA4202ACF1200C6F
:10230000DCF11E0E54D943FA0CFE10EB0E0051F115
:10231000FF31CCF11E0ED5D50EF1010E12FA0EFED4
:10232000404141EB010101EB445C5FEA5C5C10D988
:1023300010EBDE7001EB045138BFBEF1004FBDE879
:10234000104018BF704700280CBF491C20F0010046
:10235000704730D24FEAD42C11F5001124F40064F8
:102360001BD0B1FA81F20B3AA41AA41ED2F12003B9
:10237000914030FA03F31943904001EBCC71002CEB
:1023800001EB0451BDE81040A8BF704701F1C04106
:102390004FF0000001F000417047B0FA80F310FAEE
:1023A00003F100D110BDE41A173C4805C90AE4E75F
:1023B00001EB045110BD491001EB0451BDE8104080
:1023C0004FEA300002E04FF0000170474A0008BFBA
:1023D0000042F8D0B2F5001F28BF704701F000415D
:1023E0004FF0000070479EEA445F07D011EA5E0F8D
:1023F000BDE8104004BF002100207047BDE8104038
:1024000070B5FFF7CBFE00BF40DFF63E83F0004122
:10241000104670470000E0FF90EA010F48BF81F0CE
:10242000004100F12E82421A3CBF801A89184FEAFF
:10243000D0524FF07F4C1CEA410FA2EBD15318BF92
:102440009CEA026F00F03B804FF0004C4CEA002009
:102450004CEA012121FA03FC10EB0C0C1ED202F114
:10246000FF325FEA1C2040EBC25038BF70471CF0BF
:102470007F0F4FEA400C18BFBCF17F4F38BF704749
:10248000C3F12003994008BF20F00100BCF17F4F49
:1024900038BF7047A0F1C04000F0DDB94FEA3C0002
:1024A000000A40EBC25028BF1CF0FF0F4FEA400C5F
:1024B000E6D018BFBCF17F4F38BF7047EAE79CEA0F
:1024C000026F05D010EA5C0F08BF00F000407047B3
:1024D00010B500F07AF900BF64FBBE3E4FF47F0CEC
:1024E0001CEAD0121EBF1CEAD11392EA0C0F93EA29
:1024F0000C0F00F0858090EA010F48BF42F4807213
:1025000040F4000C41F400002CF07F4120F07F40AB
:1025100000B58142A2EB03020FF2081CACEB504E57
:10252000C0F100009EF800E04FEA4E0E00FB0EFCEA
:1025300038BF49004FEA2C1C02F5FA020CFB0EF3DF
:102540004FEACE1E4FEA112C4FEAC1210EEB635E1B
:1025500042EB22420EFB0CFC4FEA1C5300FB031122
:102560004FEA112C4FEA01310EFB0CFC4FEADC4C18
:1025700000FB0C11C14228BF09184CEB03335DF876
:1025800004EB10EB410143EBC250B2F57C0F38BFB6
:10259000704729D512F0F00F1CBF00F1C04000F0C9
:1025A00000407047008182838485868788898B8C70
:1025B0008D8E8F919293959697999A9C9D9FA0A2AC
:1025C000A3A5A7A8AAACAEB0B2B3B5B7B9BCBEC0FC
:1025D000C2C5C7C9CCCED1D4D7D9DCDFE2E6E9EC9D
:1025E000F0F3F7FAFE0000004FEA400C0CF1807C9B
:1025F000BCF17E4F28BF7047B0F1C04000F02BB94E
:1026000090EA010F0CEAD11348BF42F48072624590
:1026100038BF634507D213F47F0F16D080EA01005C
:1026200000F00040704710B500F0CFF8097EFC3E86
:1026300000F005B880EA010000F00040704780EA31
:10264000010000F0004000F006B912F47F0F04BF53
:102650000248704780EA010000F0FDB80000C07F2A
:10266000C10DD1F19E0206DB4FEA002343F0004387
:1026700023FA02F07047004207D54FEA4001B1F15A
:10268000FE4F02D24FF00000704710B500F09DF8E9
:1026900049922480002070476FEA200070470000B4
:1026A000B0FA80F310FA03F2C3F19D030AD0D90502
:1026B00001EB1220530638BF704700F1010008BF3C
:1026C00020F00100704700004FF47F0C1CEAD0128C
:1026D0001EBF1CEAD11392EA0C0F93EA0C0F00F014
:1026E000478090EA010F48BF42F480724FF0004CDF
:1026F0004CEA00204CEA012102EB0302A0FB01138B
:10270000A2F50002002918BF43F001035B0028BFB7
:102710004FEA330342EB22425FEA132C4CEBC250E8
:102720002EBFBCEB436FB2F57C0F70474FEA036CD2
:10273000BCF1004F08BF20F00100B2F57C0F38BF9C
:1027400070470BD582F0FF0212F5803FC8BF70477B
:1027500000F1C040D8BF00F00040704700F5000C09
:102760005FEA4C0C48BF7047B0F1C04000F073B84E
:1027700090EA010F0CEAD11348BF42F4807262451F
:1027800038BF634504D280EA010000F00040704782
:1027900010B500F01AF800BF8900013E00F007B83C
:1027A00000F009B85FEA410C5FEA1C6C08D080EACF
:1027B000010000F050B85FEA400C5FEA1C6CF6D1F3
:1027C0004FF00040A0F5800070470EF1020E2EF091
:1027D000030E5EF8044B244204D44FEA4102B2F1E6
:1027E0007F4F11D84FEA4003B3F17F4F0CD80ED181
:1027F0004FEAD07CB2F17F4F0CEB4C0C0CF1020C89
:1028000008BF4CEBD17C04E04FF0080C01E04FEA2C
:10281000D17C0CEB4C0324FA03F404F00704B4F16C
:10282000040C06D20EEB840CBDE810404CF0010CF9
:102830006047DFE80CF0070802024FF00040A0F507
:10284000800010BD0846420018BFD2F1807288BFD8
:1028500000F0004010BDFF2141EAD050C005704794
:1028600080F0004090EA010F7FF5DDAD81F000417E
:1028700000F007B890EA010F48BF81F000413FF532
:10288000D2AD421A04D882F00042A0EB02001144FB
:102890004FEAD0524FF07F4C1CEA410FA2EBD153CC
:1028A00018BF9CEA026F4AD04FF0004C4CEA00205F
:1028B0004CEA012121FA03FCB0EB0C0C0FD412F00E
:1028C000FE0F36D05FEA4C001DD5001240EBC2501F
:1028D00038BF70471CF03F0F18BF70470BE0A2F1E4
:1028E00001025FEA1C2040EBC25038BF70471CF069
:1028F0007F0F18BF7047C3F12003994014BF401EDB
:1029000020F00100704780084FEA122308BF70478B
:10291000B0FA80FCA2EB0C02CCF1280C60FA0CF0AF
:1029200093EA122F04BF00EBC25070474FEAC37006
:102930007047130A5FEADC1008BF7047F6E79CEAAD
:10294000026F04D010EA5C0F08BF0020704710B57A
:10295000FFF73BFF40DFF63E81F00040704700008C
:1029600000000000000000000000000000003F40E8
:102970000000000000000000300040003000400077
:10298000000009000BC03D000BC03D00090018C04D
:1029900024407FE0224031800000180024C01B004A
:1029A0000D803240018003801C4027401C8007407E
:1029B0000040100060000000000000000000000067
:1029C000000000001F8020404020000040202040E8
:1029D0001F8000000000090006001F80060009009B
:1029E0000000040004003F80040004000000001008
:1029F000006000000000000000000400040004006B
:102A0000040004000000000000400000000000007E
:102A10000000002001C006003800400000001F80B8
:102A20002040204020401F800000000010403FC098
:102A300000400000000018C02140224024401840FF
:102A4000000010802040244024401B800000020031
:102A50000D0011003FC0014000003C802440244094
:102A60002440238000001F80244024403440038001
:102A700000003000200027C03800200000001B802C
:102A80002440244024401B8000001C0022C022401F
:102A900022401F80000000000000084000000000ED
:102AA00000000000000004600000000000000000C2
:102AB00004000A00110020804040090009000900BC
:102AC00009000900000000004040208011000A00B9
:102AD00004001800200023402400180000001F807C
:102AE0002040274029401F400000004007C0390017
:102AF0000F0001C0004020403FC0244024401B8004
:102B000000001F80204020402040308000002040F6
:102B10003FC0204020401F80000020403FC0244094
:102B20002E4030C0000020403FC024402E00300026
:102B300000000F001080204022403380020020401F
:102B40003FC0040004003FC02040204020403FC060
:102B50002040204000000060202020203FC02000B6
:102B6000200020403FC024400B0030C020402040C7
:102B70003FC020400040004000C03FC03C0003C0B8
:102B80003C003FC0000020403FC00C4023003FC03D
:102B900020001F802040204020401F800000204057
:102BA0003FC024402400180000001F802140214025
:102BB00020E01FA0000020403FC02440260019C094
:102BC000004018C0244024402240318000003000E2
:102BD00020403FC020403000000020003F800040E7
:102BE00000403F80200020003E0001C00700380068
:102BF0002000380007C03C0007C03800000020401B
:102C000039C0060039C0204000002000384007C00D
:102C1000384020000000304021C02640384020C00D
:102C20000000000000007FE0402040200000000085
:102C300070000C0003800040000000004020402095
:102C40007FE00000000000002000400020000000A5
:102C50000000001000100010001000100010000014
:102C6000000040000000000000000000028005405D
:102C7000054003C0004020003FC0044004400380E2
:102C800000000000038004400440064000000000F3
:102C90000380044024403FC0004000000380054002
:102CA000054003400000000004401FC024402440B1
:102CB0002000000002E0055005500650042020408E
:102CC0003FC00440040003C000400000044027C08F
:102CD00000400000000000100010041027E0000079
:102CE000000020403FC00140070004C004402040D5
:102CF00020403FC000400040000007C0040007C063
:102D0000040003C00000044007C00440040003C0E6
:102D100000400000038004400440038000000410D1
:102D200007F00450044003800000000003800440CA
:102D3000045007F00010044007C0024004000400E3
:102D40000000000006400540054004C000000000EF
:102D500004001F8004400040000004000780004081
:102D6000044007C000400400070004C001800600C2
:102D70000400060001C0070001C006000000044076
:102D800006C0010006C0044000000410071004E063
:102D90000180060004000000044005C00640044015
:102DA00000000000000004007BE040200000000064
:102DB00000000000FFF000000000000040207BE069
:102DC00004000000000040008000400020002000BF
:102DD00040000000000000000000000000000000B3
:102DE00000000000000000001FCC000C00000000EC
:102DF00000000000080030006000080030006000A3
:102E00000000022003FC1E20022003FC1E200220E2
:102E1000000000000E1811043FFF10840C78000021
:102E200000000F0010840F3800C007781884007865
:102E3000000000780F8410C411240E9800E4008470
:102E4000000808006800700000000000000000009A
:102E5000000000000000000007E0181820044002F5
:102E60000000000040022004181807E000000000E5
:102E700000000240024001800FF001800240024049
:102E800000000080008000800FF80080008000803B
:102E900000000001000D000E000000000000000016
:102EA0000000000000800080008000800080008022
:102EB00000800000000C000C00000000000000007A
:102EC00000000000000600180060018006001800E5
:102ED0002000000007F0080810041004080807F09C
:102EE00000000000080408041FFC000400040000A7
:102EF000000000000E0C10141024104411840E0C5D
:102F0000000000000C1810041104110412880C7049
:102F10000000000000E00320042408241FFC00241B
:102F2000000000001F981084110411041088107014
:102F30000000000007F008881104110418880070D0
:102F4000000000001C00100010FC13001C0010000A
:102F5000000000000E3811441084108411440E3813
:102F6000000000000700088C10441044088807F097
:102F70000000000000000000030C030C0000000033
:102F80000000000000000001010600000000000039
:102F90000000000000800140022004100808100416
:102FA0000000022002200220022002200220022033
:102FB00000000000100408080410022001400080F6
:102FC000000000000E001200100C106C10800F00AA
:102FD000000003E00C1813E4142417C4082807D0D9
:102FE00000000004003C03C41C40074000E4001C37
:102FF000000410041FFC1104110411040E88007059
:10300000000003E00C1810041004100410081C1039
:10301000000010041FFC100410041004080807F03E
:10302000000010041FFC1104110417C41004081838
:10303000000010041FFC1104110017C0100008004C
:10304000000003E00C181004100410441C78004029
:10305000000010041FFC10840080008010841FFCFE
:1030600010040000100410041FFC100410040000E1
:10307000000000030001100110011FFE10001000ED
:10308000000010041FFC110403801464181C1004B9
:10309000000010041FFC1004000400040004000CD5
:1030A000000010041FFC1F0000FC1F001FFC100488
:1030B000000010041FFC0C04030000E010181FFCAB
:1030C000100007F00808100410041004080807F0A6
:1030D000000010041FFC10841080108010800F006E
:1030E000000007F0081810241024101C080A07F22A
:1030F000000010041FFC1104110011C011300E0C4F
:10310000000400000E1C11041084108410441C38AC
:1031100000001800100010041FFC1004100018001C
:10312000000010001FF810040004000410041FF831
:10313000100010001E0011E0001C007013801C0025
:1031400010001FC0103C00E01F0000E0103C1FC03A
:1031500000001004180C163401C001C01634180CFD
:10316000100410001C00130400FC13041C001000C9
:1031700000000804101C1064108413041C041018B0
:1031800000000000000000007FFE400240024002FC
:103190000000000030000C0003800060001C0003F1
:1031A000000000004002400240027FFE00000000DC
:1031B000000000000000200040004000400020000F
:1031C00000000001000100010001000100010001F8
:1031D000000100004000400020000000000000004E
:1031E000000000000098012401440144014400FC57
:1031F000000410001FFC0088010401040088007016
:10320000000000000070008801040104010400882F
:1032100000000000007000880104010411081FFC78
:103220000004000000F8014401440144014400C8C6
:1032300000000000010401040FFC1104110411003E
:103240001800000000D601290129012901C9010641
:10325000000010041FFC008401000100010400FCB8
:10326000000400000104190419FC0004000400001B
:1032700000000000000300010101190119FE000017
:10328000000010041FFC0024004001B4010C0104E4
:1032900000000000100410041FFC000400040000E3
:1032A0000000010401FC0104010001FC0104010013
:1032B00000FC010401FC008401000100010400FC89
:1032C0000004000000F8010401040104010400F8F6
:1032D0000000010101FF0085010401040088007065
:1032E000000000000070008801040104010501FFD6
:1032F00000010104010401FC0084010401000180BB
:103300000000000000CC01240124012401240198C4
:10331000000000000100010007F8010401040000A2
:103320000000010001F8000400040004010801FC91
:103330000004010001800170000C00100160018098
:10334000010001F0010C003001C00030010C01F05F
:10335000010000000104018C00740170018C010463
:103360000000010101810171000E0018016001805F
:10337000010000000184010C013401440184010CAE
:103380000000000000000000000001003EFC4002C0
:1033900040020000000000000000FFFF00000000ED
:1033A00000000000400240023EFC0100000000005E
:1033B000000000006000800080004000400020000D
:1033C00020000000000000000000000000000000DD
:1033D00000000000000000000000000000000000ED
:1033E00000000000000000000000000000000000DD
:1033F00000000000000F80380FFE380F80380000FA
:1034000000000000000000000000000000000000BC
:103410000100000600000C0000380000310000062A
:1034200000000C0000380000300000000000000028
:10343000000061800067F807F9800061800061800A
:103440000061800061800067F807F98000618000FA
:10345000000000000000000001C0E003E0F00630C2
:10346000080418081FFFFE040E080787F00381E018
:1034700000000000000001F000060C000404080633
:103480000C7001F9C0000E00003BE000EC180708CA
:1034900008040C180003E00000000001E00007F041
:1034A00003F818041C0804170807E1D003C0E00063
:1034B00023B0003C080020080000100000000000BD
:1034C000000100003100003200001C00000000007C
:1034D00000000000000000000000000000000000EC
:1034E00000000000000000000000000000000000DC
:1034F00000007F0001FFC00780F00C0018100004DE
:103500002000020000000000002000021000040C57
:1035100000180780F001FFC0007F000000000000DD
:103520000000000000000000000000000000420059
:10353000006600006600003C0000180003FFC000A9
:103540001800003C00006600006600004200000019
:103550000000080000080000080000080000080043
:1035600001FFC0000800000800000800000800007B
:1035700008000000000000010000310000320000DF
:103580001C0000000000000000000000000000001F
:10359000000000000000000000000800000800001B
:1035A00008000008000008000008000008000008EB
:1035B00000000800000800000000000000000000FB
:1035C0000000380000380000380000000000000053
:1035D00000000000000000000000000000000000EB
:1035E0000000000600001C000070000180000E00BA
:1035F00000380000C0000700001C00003000000080
:103600000000000000007F8001FFE00380700600E2
:103610001804000804000806001803807001FFE089
:10362000007F800000000000000000000100080191
:10363000000801000803FFF807FFF8000008000079
:103640000800000800000000000000000001C03871
:1036500002C0580400980401180402180404180653
:103660001C1803F81801E0F800000000000000003A
:103670000001C0E003C0F0040008040808040808C2
:1036800006180803F41801E7F00001E0000000004C
:103690000000000000000300000D000011000061A8
:1036A0000000810803010807FFF80FFFF800010878
:1036B0000001080000000000000000E007FCD00648
:1036C0000808061008061008061008061838060F25
:1036D000F00607C0000000000000000000003F806E
:1036E00001FFE003843002081804100804100804E5
:1036F0001008071810030FF00007C00000000000BA
:103700000000000003C0000700000600000600F8EB
:103710000607F806180006E0000700000600000093
:10372000000000000001E1E003F7F0063410041887
:1037300008041808040C08040C0806161803F3F013
:1037400001C1E000000000000000F80003FC3003AD
:1037500006380402080402080402080404100308DE
:10376000F001FFC0007F000000000000000000002A
:1037700000000000000000000000703800703800F9
:103780007038000000000000000000000000000091
:103790000000000000000000000000000000301ADF
:1037A00000301C00000000000000000000000000CD
:1037B00000000000000000000008000014000022CB
:1037C0000000410000808001004002002004001041
:1037D0000800080000000000000021000021000097
:1037E0002100002100002100002100002100002113
:1037F0000000210000210000000000000000000087
:103800000800080400100200200100400080800031
:103810004100002200001400000800000000000029
:103820000003C00004C000040000080038080F387E
:103830000808380810000C300007E00003C0000042
:103840000000000000003F8000FFE0038070020FD6
:103850001006708804C088048308047F8802C09022
:1038600003012000FE400000080000180001F800DD
:103870003E0801C20007020007E20000FE00001F30
:10388000C80001F800003800000804000807FFF82D
:1038900007FFF804080804080804080804080806D4
:1038A000180803F41801E7F00001E0000000000030
:1038B00000003F8001FFE003807002001804000850
:1038C0000400080400080400100600200780C0005F
:1038D000000004000807FFF807FFF80400080400D0
:1038E0000804000804001802001003807001FFE0C3
:1038F000007F8000000004000807FFF807FFF804BD
:103900000808040808040808040808043E0804001D
:103910000806001801006000000004000807FFF816
:1039200007FFF8040808040800040800040800045D
:103930003E000600000600000180000000000000BC
:1039400000003F8001FFE0038070060018040008BB
:103950000402080402080203F00783F000020000DA
:10396000020004000807FFF807FFF8040808000831
:103970000000080000080000080004080807FFF81D
:1039800007FFF8040008000000000000040008041D
:10399000000804000807FFF807FFF8040008040007
:1039A00008040008000000000000000000000006FD
:1039B00000000700000104000104000104000307E7
:1039C000FFFE07FFFC0400000400000400000400E8
:1039D0000807FFF807FFF8040C08001800003E0075
:1039E00004C7800503C80600F80400380400180066
:1039F000000804000807FFF807FFF80400080000AB
:103A00000800000800000800000800000800001876
:103A100000006000000004000807FFF807800807A6
:103A2000FC00007FC00003F80007C000780007809A
:103A30000807FFF807FFF804000804000807FFF86C
:103A400007000803C00000E000003800001E00006E
:103A500007000001C00400F007FFF80400000000A8
:103A600000007F8001FFE00380700600180400085A
:103A700004000806001803003001FFE0007F80000A
:103A8000000004000807FFF807FFF8040408040416
:103A900000040400040400040400060C0003F80001
:103AA00001F000000000000000007F8001FFE00343
:103AB00080700600880400880400C806003C0300EB
:103AC0003E01FFE6007F8400000004000807FFF8C5
:103AD00007FFF8040808040800040C00040F0004A1
:103AE0000BC00610F003F03801E0080000080000E9
:103AF0000001E0F803F0300630100418080418083C
:103B0000040C08040C080206180207F00781E00004
:103B10000000018000060000040000040000040012
:103B20000807FFF807FFF80400080400000400007D
:103B300006000001800004000007FFE007FFF0041A
:103B4000001800000800000800000800000800003D
:103B50000804001007FFE004000004000006000055
:103B600007E00007FE00041FE00001F80000380035
:103B700001E0043E0007C00006000004000004004D
:103B80000007E00007FFC0041FF80007C007F800A7
:103B900007FF80043FF80007C004F8000700000496
:103BA000000000000004000806001807C07805F1B6
:103BB000C8003E00001F800463E80780F806001874
:103BC0000400080000000400000600000780000751
:103BD000E008047C08001FF80007F800180804E05B
:103BE00008070000060000040000000000010008B3
:103BF0000600380400F80403E8040F08047C0805F4
:103C0000F00807C00807001804006000000000006A
:103C1000000000000000000000000000003FFFFE68
:103C200020000220000220000220000220000200EA
:103C3000000000000000000008000007000000C0B5
:103C4000000038000006000001C000003000000E37
:103C50000000010000000000000000002000022021
:103C600000022000022000022000023FFFFE0000B0
:103C70000000000000000000000000000000000044
:103C8000000000080000100000300000200000309C
:103C9000000010000008000000000000000000000C
:103CA000010000010000010000010000010000010E
:103CB00000000100000100000100000100000100FF
:103CC00000010000000000000000002000002000B3
:103CD00000100000100000000000000000000000C4
:103CE0000000000000000000000000F00019F800D3
:103CF0001B18002208002608002408002410003F9A
:103D0000F8001FF800000800001800000004000080
:103D100007FFF80FFFF00018180010080020080037
:103D20002008003018001FF0000FC0000000000045
:103D3000000007C0001FF000183000200800200815
:103D4000002008003C08001C10000060000000007B
:103D500000000000000007C0001FF000381800201D
:103D60000800200800200804101007FFF80FFFF0DB
:103D70000000100000000000000000000007C0006C
:103D80001FF0001230002218002208002208003222
:103D900008001E10000E200000000000000020009F
:103DA00000200800200801FFF803FFF8062008049F
:103DB0002008042008072000030000000000000085
:103DC0000000000E000E6E001FF30031B10020B1A4
:103DD0000020B1003191001F13002E1E00200E00A4
:103DE000300000000004000807FFF80FFFF8001083
:103DF00008002000002000002008003FF8001FF805
:103E00000000080000000000000000000020080082
:103E10002008002008063FF8063FF80000080000D0
:103E20000800000800000000000000000000000082
:103E30000000030000030020010020010020030611
:103E40003FFE063FFC0000000000000000000000F4
:103E50000004000807FFF80FFFF8000188000300C6
:103E6000002FC00038F800203800200800000800AB
:103E70000000000000000000040008040008040026
:103E80000807FFF80FFFF80000080000080000080E
:103E9000000000000000002008003FF8003FF8008C
:103EA0001008002000003FF8003FF8001008002034
:103EB00000003FF8003FF800000800000000200864
:103EC000003FF8003FF8001008001000002000003C
:103ED0002008003FF8001FF8000008000000000064
:103EE000000007C0000FF000183000300800200864
:103EF000002008003008001830000FF00007C00054
:103F00000000000000002001003FFF003FFF001004
:103F100011002009002008002008003038001FF0A0
:103F2000000FC00000000000000007C0001FF000EC
:103F30003818002008002008002009001011001F78
:103F4000FF003FFF000001000000002008002008E3
:103F5000002008003FF8003FF800080800100800A3
:103F600020080020000030000030000000000000A9
:103F700000000000000C78001E1800330800230821
:103F80000021080021880021980030F000386000EE
:103F9000000000000000200000200000200000FFC2
:103FA000F003FFF80020080020080020080000307F
:103FB000000000000000000000002000003FF000B2
:103FC0007FF8000018000008000008002010003FE3
:103FD000F8007FF00000100000000000000020004A
:103FE000003000003C00003F800023F0000078001B
:103FF0000070002380003C00003000002000002002
:1040000000003C00003FE00023F80000E000270033
:10401000003E00003FE00021F80001E0003E00000B
:104020002000000000002008002008003838003E72
:10403000680027800003C8002CF8003838002018DA
:1040400000200800000000000000200000300300F5
:104050003C01003F830023EC000070002380003C03
:104060000000200000200000000000000000000010
:104070000038080020380020F80023E8002F8800CE
:104080003E08003808002018000070000000000002
:104090000000000000000000000000000000080018
:1040A0000014001FF7FC3000062000020000000092
:1040B0000000000000000000000000000000000000
:1040C00000000000FFFFFF000000000000000000F3
:1040D000000000000000000000000000200002308E
:1040E00000061FF7FC00140000080000000000009C
:1040F00000000000000000000000000000180000A8
:104100006000004000004000002000001000000897
:1041100000000400000400000C000010000000007B
:1041200040410008000000200C00000028010008A9
:104130004C4100080C0000202C0B0000440100083A
:0C41400000000000000000000000010072
:04000005080000ED02
:00000001FF
